{
  "contractName": "Migrations",
  "abi": [
    {
      "inputs": [],
      "stateMutability": "nonpayable",
      "type": "constructor"
    },
    {
      "inputs": [],
      "name": "last_completed_migration",
      "outputs": [
        {
          "internalType": "uint256",
          "name": "",
          "type": "uint256"
        }
      ],
      "stateMutability": "view",
      "type": "function"
    },
    {
      "inputs": [],
      "name": "owner",
      "outputs": [
        {
          "internalType": "address",
          "name": "",
          "type": "address"
        }
      ],
      "stateMutability": "view",
      "type": "function"
    },
    {
      "inputs": [
        {
          "internalType": "address",
          "name": "",
          "type": "address"
        }
      ],
      "name": "users",
      "outputs": [
        {
          "internalType": "string",
          "name": "username",
          "type": "string"
        },
        {
          "internalType": "string",
          "name": "password",
          "type": "string"
        },
        {
          "internalType": "string",
          "name": "email",
          "type": "string"
        },
        {
          "internalType": "string",
          "name": "accountNumber",
          "type": "string"
        },
        {
          "internalType": "string",
          "name": "branchName",
          "type": "string"
        },
        {
          "internalType": "string",
          "name": "nationality",
          "type": "string"
        }
      ],
      "stateMutability": "view",
      "type": "function"
    },
    {
      "inputs": [
        {
          "internalType": "uint256",
          "name": "completed",
          "type": "uint256"
        }
      ],
      "name": "setCompleted",
      "outputs": [],
      "stateMutability": "nonpayable",
      "type": "function"
    },
    {
      "inputs": [
        {
          "internalType": "address",
          "name": "new_address",
          "type": "address"
        }
      ],
      "name": "upgrade",
      "outputs": [],
      "stateMutability": "nonpayable",
      "type": "function"
    },
    {
      "inputs": [
        {
          "internalType": "string",
          "name": "_username",
          "type": "string"
        },
        {
          "internalType": "string",
          "name": "_password",
          "type": "string"
        },
        {
          "internalType": "string",
          "name": "_email",
          "type": "string"
        },
        {
          "internalType": "string",
          "name": "_accountNumber",
          "type": "string"
        },
        {
          "internalType": "string",
          "name": "_branchName",
          "type": "string"
        },
        {
          "internalType": "string",
          "name": "_nationality",
          "type": "string"
        }
      ],
      "name": "setUser",
      "outputs": [],
      "stateMutability": "nonpayable",
      "type": "function"
    },
    {
      "inputs": [],
      "name": "getUser",
      "outputs": [
        {
          "internalType": "string",
          "name": "username",
          "type": "string"
        },
        {
          "internalType": "string",
          "name": "password",
          "type": "string"
        },
        {
          "internalType": "string",
          "name": "email",
          "type": "string"
        },
        {
          "internalType": "string",
          "name": "accountNumber",
          "type": "string"
        },
        {
          "internalType": "string",
          "name": "branchName",
          "type": "string"
        },
        {
          "internalType": "string",
          "name": "nationality",
          "type": "string"
        }
      ],
      "stateMutability": "view",
      "type": "function"
    }
  ],
  "bytecode": "0x608060405234801561000f575f80fd5b50335f806101000a81548173ffffffffffffffffffffffffffffffffffffffff021916908373ffffffffffffffffffffffffffffffffffffffff16021790555061144a8061005c5f395ff3fe608060405234801561000f575f80fd5b506004361061007a575f3560e01c8063832880e711610059578063832880e7146100d45780638da5cb5b146100f7578063a87430ba14610115578063fdacd5761461014a5761007a565b8062178c421461007e5780630900f0101461009a578063445df0ac146100b6575b5f80fd5b61009860048036038101906100939190610cee565b610166565b005b6100b460048036038101906100af9190610e79565b61025d565b005b6100be61035a565b6040516100cb9190610ebc565b60405180910390f35b6100dc610360565b6040516100ee96959493929190610f4f565b60405180910390f35b6100ff61078b565b60405161010c9190610fe7565b60405180910390f35b61012f600480360381019061012a9190610e79565b6107ae565b60405161014196959493929190610f4f565b60405180910390f35b610164600480360381019061015f919061102a565b610b0a565b005b6040518060c001604052808781526020018681526020018581526020018481526020018381526020018281525060025f3373ffffffffffffffffffffffffffffffffffffffff1673ffffffffffffffffffffffffffffffffffffffff1681526020019081526020015f205f820151815f0190816101e3919061124f565b5060208201518160010190816101f9919061124f565b50604082015181600201908161020f919061124f565b506060820151816003019081610225919061124f565b50608082015181600401908161023b919061124f565b5060a0820151816005019081610251919061124f565b50905050505050505050565b5f8054906101000a900473ffffffffffffffffffffffffffffffffffffffff1673ffffffffffffffffffffffffffffffffffffffff163373ffffffffffffffffffffffffffffffffffffffff16146102ea576040517f08c379a00000000000000000000000000000000000000000000000000000000081526004016102e19061138e565b60405180910390fd5b5f8190508073ffffffffffffffffffffffffffffffffffffffff1663fdacd5766001546040518263ffffffff1660e01b81526004016103299190610ebc565b5f604051808303815f87803b158015610340575f80fd5b505af1158015610352573d5f803e3d5ffd5b505050505050565b60015481565b6060806060806060805f60025f3373ffffffffffffffffffffffffffffffffffffffff1673ffffffffffffffffffffffffffffffffffffffff1681526020019081526020015f206040518060c00160405290815f820180546103c190611082565b80601f01602080910402602001604051908101604052809291908181526020018280546103ed90611082565b80156104385780601f1061040f57610100808354040283529160200191610438565b820191905f5260205f20905b81548152906001019060200180831161041b57829003601f168201915b5050505050815260200160018201805461045190611082565b80601f016020809104026020016040519081016040528092919081815260200182805461047d90611082565b80156104c85780601f1061049f576101008083540402835291602001916104c8565b820191905f5260205f20905b8154815290600101906020018083116104ab57829003601f168201915b505050505081526020016002820180546104e190611082565b80601f016020809104026020016040519081016040528092919081815260200182805461050d90611082565b80156105585780601f1061052f57610100808354040283529160200191610558565b820191905f5260205f20905b81548152906001019060200180831161053b57829003601f168201915b5050505050815260200160038201805461057190611082565b80601f016020809104026020016040519081016040528092919081815260200182805461059d90611082565b80156105e85780601f106105bf576101008083540402835291602001916105e8565b820191905f5260205f20905b8154815290600101906020018083116105cb57829003601f168201915b5050505050815260200160048201805461060190611082565b80601f016020809104026020016040519081016040528092919081815260200182805461062d90611082565b80156106785780601f1061064f57610100808354040283529160200191610678565b820191905f5260205f20905b81548152906001019060200180831161065b57829003601f168201915b5050505050815260200160058201805461069190611082565b80601f01602080910402602001604051908101604052809291908181526020018280546106bd90611082565b80156107085780601f106106df57610100808354040283529160200191610708565b820191905f5260205f20905b8154815290600101906020018083116106eb57829003601f168201915b50505050508152505090505f815f01515111610759576040517f08c379a0000000000000000000000000000000000000000000000000000000008152600401610750906113f6565b60405180910390fd5b805f015181602001518260400151836060015184608001518560a0015196509650965096509650965050909192939495565b5f8054906101000a900473ffffffffffffffffffffffffffffffffffffffff1681565b6002602052805f5260405f205f91509050805f0180546107cd90611082565b80601f01602080910402602001604051908101604052809291908181526020018280546107f990611082565b80156108445780601f1061081b57610100808354040283529160200191610844565b820191905f5260205f20905b81548152906001019060200180831161082757829003601f168201915b50505050509080600101805461085990611082565b80601f016020809104026020016040519081016040528092919081815260200182805461088590611082565b80156108d05780601f106108a7576101008083540402835291602001916108d0565b820191905f5260205f20905b8154815290600101906020018083116108b357829003601f168201915b5050505050908060020180546108e590611082565b80601f016020809104026020016040519081016040528092919081815260200182805461091190611082565b801561095c5780601f106109335761010080835404028352916020019161095c565b820191905f5260205f20905b81548152906001019060200180831161093f57829003601f168201915b50505050509080600301805461097190611082565b80601f016020809104026020016040519081016040528092919081815260200182805461099d90611082565b80156109e85780601f106109bf576101008083540402835291602001916109e8565b820191905f5260205f20905b8154815290600101906020018083116109cb57829003601f168201915b5050505050908060040180546109fd90611082565b80601f0160208091040260200160405190810160405280929190818152602001828054610a2990611082565b8015610a745780601f10610a4b57610100808354040283529160200191610a74565b820191905f5260205f20905b815481529060010190602001808311610a5757829003601f168201915b505050505090806005018054610a8990611082565b80601f0160208091040260200160405190810160405280929190818152602001828054610ab590611082565b8015610b005780601f10610ad757610100808354040283529160200191610b00565b820191905f5260205f20905b815481529060010190602001808311610ae357829003601f168201915b5050505050905086565b5f8054906101000a900473ffffffffffffffffffffffffffffffffffffffff1673ffffffffffffffffffffffffffffffffffffffff163373ffffffffffffffffffffffffffffffffffffffff1614610b97576040517f08c379a0000000000000000000000000000000000000000000000000000000008152600401610b8e9061138e565b60405180910390fd5b8060018190555050565b5f604051905090565b5f80fd5b5f80fd5b5f80fd5b5f80fd5b5f601f19601f8301169050919050565b7f4e487b71000000000000000000000000000000000000000000000000000000005f52604160045260245ffd5b610c0082610bba565b810181811067ffffffffffffffff82111715610c1f57610c1e610bca565b5b80604052505050565b5f610c31610ba1565b9050610c3d8282610bf7565b919050565b5f67ffffffffffffffff821115610c5c57610c5b610bca565b5b610c6582610bba565b9050602081019050919050565b828183375f83830152505050565b5f610c92610c8d84610c42565b610c28565b905082815260208101848484011115610cae57610cad610bb6565b5b610cb9848285610c72565b509392505050565b5f82601f830112610cd557610cd4610bb2565b5b8135610ce5848260208601610c80565b91505092915050565b5f805f805f8060c08789031215610d0857610d07610baa565b5b5f87013567ffffffffffffffff811115610d2557610d24610bae565b5b610d3189828a01610cc1565b965050602087013567ffffffffffffffff811115610d5257610d51610bae565b5b610d5e89828a01610cc1565b955050604087013567ffffffffffffffff811115610d7f57610d7e610bae565b5b610d8b89828a01610cc1565b945050606087013567ffffffffffffffff811115610dac57610dab610bae565b5b610db889828a01610cc1565b935050608087013567ffffffffffffffff811115610dd957610dd8610bae565b5b610de589828a01610cc1565b92505060a087013567ffffffffffffffff811115610e0657610e05610bae565b5b610e1289828a01610cc1565b9150509295509295509295565b5f73ffffffffffffffffffffffffffffffffffffffff82169050919050565b5f610e4882610e1f565b9050919050565b610e5881610e3e565b8114610e62575f80fd5b50565b5f81359050610e7381610e4f565b92915050565b5f60208284031215610e8e57610e8d610baa565b5b5f610e9b84828501610e65565b91505092915050565b5f819050919050565b610eb681610ea4565b82525050565b5f602082019050610ecf5f830184610ead565b92915050565b5f81519050919050565b5f82825260208201905092915050565b5f5b83811015610f0c578082015181840152602081019050610ef1565b5f8484015250505050565b5f610f2182610ed5565b610f2b8185610edf565b9350610f3b818560208601610eef565b610f4481610bba565b840191505092915050565b5f60c0820190508181035f830152610f678189610f17565b90508181036020830152610f7b8188610f17565b90508181036040830152610f8f8187610f17565b90508181036060830152610fa38186610f17565b90508181036080830152610fb78185610f17565b905081810360a0830152610fcb8184610f17565b9050979650505050505050565b610fe181610e3e565b82525050565b5f602082019050610ffa5f830184610fd8565b92915050565b61100981610ea4565b8114611013575f80fd5b50565b5f8135905061102481611000565b92915050565b5f6020828403121561103f5761103e610baa565b5b5f61104c84828501611016565b91505092915050565b7f4e487b71000000000000000000000000000000000000000000000000000000005f52602260045260245ffd5b5f600282049050600182168061109957607f821691505b6020821081036110ac576110ab611055565b5b50919050565b5f819050815f5260205f209050919050565b5f6020601f8301049050919050565b5f82821b905092915050565b5f6008830261110e7fffffffffffffffffffffffffffffffffffffffffffffffffffffffffffffffff826110d3565b61111886836110d3565b95508019841693508086168417925050509392505050565b5f819050919050565b5f61115361114e61114984610ea4565b611130565b610ea4565b9050919050565b5f819050919050565b61116c83611139565b6111806111788261115a565b8484546110df565b825550505050565b5f90565b611194611188565b61119f818484611163565b505050565b5b818110156111c2576111b75f8261118c565b6001810190506111a5565b5050565b601f821115611207576111d8816110b2565b6111e1846110c4565b810160208510156111f0578190505b6112046111fc856110c4565b8301826111a4565b50505b505050565b5f82821c905092915050565b5f6112275f198460080261120c565b1980831691505092915050565b5f61123f8383611218565b9150826002028217905092915050565b61125882610ed5565b67ffffffffffffffff81111561127157611270610bca565b5b61127b8254611082565b6112868282856111c6565b5f60209050601f8311600181146112b7575f84156112a5578287015190505b6112af8582611234565b865550611316565b601f1984166112c5866110b2565b5f5b828110156112ec578489015182556001820191506020850194506020810190506112c7565b868310156113095784890151611305601f891682611218565b8355505b6001600288020188555050505b505050505050565b7f4f6e6c79206f776e65722063616e2063616c6c20746869732066756e6374696f5f8201527f6e00000000000000000000000000000000000000000000000000000000000000602082015250565b5f611378602183610edf565b91506113838261131e565b604082019050919050565b5f6020820190508181035f8301526113a58161136c565b9050919050565b7f5573657220646f6573206e6f74206578697374000000000000000000000000005f82015250565b5f6113e0601383610edf565b91506113eb826113ac565b602082019050919050565b5f6020820190508181035f83015261140d816113d4565b905091905056fea26469706673582212205516e0606c9e4775ab48d57ebc396663e2ba3a6b6f05f7a5d4a38b880ec6bfcf64736f6c63430008150033",
  "immutableReferences": {},
  "source": "// SPDX-License-Identifier: MIT\r\npragma solidity >=0.4.22 <0.9.0;\r\n\r\ncontract Migrations {\r\n    address public owner;\r\n    uint public last_completed_migration;\r\n    mapping(address => User) public users;\r\n\r\n    struct User {\r\n        string username;\r\n        string password;\r\n        string email;\r\n        string accountNumber;\r\n        string branchName;\r\n        string nationality;\r\n    }\r\n\r\n    constructor() {\r\n        owner = msg.sender;\r\n    }\r\n\r\n    modifier restricted() {\r\n        require(msg.sender == owner, \"Only owner can call this function\");\r\n        _;\r\n    }\r\n\r\n    function setCompleted(uint completed) public restricted {\r\n        last_completed_migration = completed;\r\n    }\r\n\r\n    function upgrade(address new_address) public restricted {\r\n        Migrations upgraded = Migrations(new_address);\r\n        upgraded.setCompleted(last_completed_migration);\r\n    }\r\n\r\n    function setUser(\r\n        string memory _username,\r\n        string memory _password,\r\n        string memory _email,\r\n        string memory _accountNumber,\r\n        string memory _branchName,\r\n        string memory _nationality\r\n    ) public {\r\n        users[msg.sender] = User(_username, _password, _email, _accountNumber, _branchName, _nationality);\r\n    }\r\n\r\n    function getUser() public view returns (\r\n        string memory username,\r\n        string memory password,\r\n        string memory email,\r\n        string memory accountNumber,\r\n        string memory branchName,\r\n        string memory nationality\r\n    ) {\r\n        User memory user = users[msg.sender];\r\n        require(bytes(user.username).length > 0, \"User does not exist\"); // Check if user exists\r\n        return (user.username, user.password, user.email, user.accountNumber, user.branchName, user.nationality);\r\n    }\r\n\r\n}",
  "sourcePath": "F:\\banking_app\\contracts\\Migrations.sol",
  "compiler": {
    "name": "solc",
    "version": "0.8.21+commit.d9974bed.Emscripten.clang"
  },
  "schemaVersion": "3.4.16",
  "updatedAt": "2024-03-11T20:40:58.102Z",
  "devdoc": {
    "kind": "dev",
    "methods": {},
    "version": 1
  },
  "userdoc": {
    "kind": "user",
    "methods": {},
    "version": 1
  }
}